:100000000C942A000C94F8030C9421040C944A04D8
:100010000C9447000C9447000C9438080C9447004B
:100020000C9447000C9447000C94F9010C94A50122
:100030000C94DC020C9449030C9456030C945C035E
:100040000C9448060C9447000C9447000C9447000D
:100050000C94470011241FBECFE5D8E0DEBFCDBF12
:1000600010E0A0E6B0E0E6E9FBE102C005900D92E9
:10007000A238B107D9F720E0A2E8B0E001C01D9294
:10008000A63BB207E1F70E94BA0B0C94B90D0C9491
:1000900000008FB58E7F8FBD8FB582608FBD8EB50E
:1000A00088608EBD8EB580618EBD8FB58F7B8FBD14
:1000B0008FB580688FBD8FB58F7E8FBD8FB58F7DDB
:1000C0008FBD8EB5887F8EBD8EB58E7F8EBD8EB571
:1000D00082608EBD8EB58B7F8EBD089590938B0010
:1000E00080938A00089590938900809388000895F2
:1000F00008959BBD8ABD90938500809384000895E8
:1001000099BD88BD909383008093820008959BBD24
:100110008ABD909385008093840077BD66BD089565
:1001200099BD88BD909383008093820077BD66BDA2
:10013000089583B78F7B83BF83B7877F83BF89B7DA
:10014000816089BF83B7887F83BF83B78E7F83BF7A
:1001500083B7826083BF83B78B7F83BF0895EF929D
:10016000FF920F931F93CF93DF9300D000D000D066
:10017000CDB7DEB77C01942F852F20E030E04AE731
:1001800054E499838A836B837C8369817A818B8130
:100190009C810E944C0D20E030E040E85BE36983E5
:1001A0007A838B839C8369817A818B819C810E9475
:1001B0004C0D8B018E839D8369831A838B839C8373
:1001C00069817A818B819C810E948F0C60938C0065
:1001D00070938D0080938E0090938F000E94BE0CD0
:1001E0009B01AC0169817A818B819C810E94220CE8
:1001F00020E030E040E853E469837A838B839C837A
:1002000069817A818B819C810E944C0D9B01AC019C
:1002100060E070E080E893E40E94220C69837A83B6
:100220008B839C8369817A818B819C810E948F0C56
:100230006623C9F062BF70E07093970060939600E8
:1002400080918C0090918D00A0918E00B0918F00D4
:100250000196A11DB11D80938C0090938D00A093F9
:100260008E00B0938F00E0929A00F0929B000F9066
:100270000F900F900F900F900F90DF91CF911F91E3
:100280000F91FF90EF9008959093990080939800BC
:10029000089582BF90E09093970080939600089510
:1002A0000895909399008093980040939000509304
:1002B000910060939200709393000895CF92DF9223
:1002C000EF92FF92CF93DF9300D000D0CDB7DEB78F
:1002D00069837A838B839C8389B78D7F89BFA8EEDE
:1002E000B3E029813A814B815C810E94170C6983BC
:1002F0007A838B839C8328EC30E040E050E00E94BE
:10030000E00BC12CD12C7601C216D306E406F5060B
:1003100071F489B7826089BF0F900F900F900F9092
:10032000DF91CF91FF90EF90DF90CF90089588B745
:1003300082708823E1F388B7826088BF8FEFC81A84
:10034000D80AE80AF80AE0CF08951F920F920FB674
:100350000F9211242F933F934F935F936F937F934B
:100360008F939F93AF93BF93EF93FF9380919E00E2
:1003700090919F00A091A000B091A1000196A11DB5
:10038000B11D80939E0090939F00A093A000B09316
:10039000A10040918C0050918D0060918E00709171
:1003A0008F0084179507A607B70791F4E0919A008C
:1003B000F0919B00309709F0099510929E001092E1
:1003C0009F001092A0001092A1008091960082BF21
:1003D000FF91EF91BF91AF919F918F917F916F911D
:1003E0005F914F913F912F910F900FBE0F901F90F3
:1003F00018951F920F920FB60F921124CF92DF9291
:10040000EF92FF922F933F934F935F936F937F935E
:100410008F939F93AF93BF93EF93FF93CF93DF930C
:1004200000D000D0CDB7DEB7209190003091910080
:100430004091920050919300C0909C00D0909D00FC
:100440008FEFC81AD80AD0929D00C0929C00211547
:1004500031054105510571F588E8C81683E1D806D4
:1004600071F4E0919800F0919900309709F00995A6
:1004700010929D0010929C00809194008CBF0F9070
:100480000F900F900F90DF91CF91FF91EF91BF915F
:10049000AF919F918F917F916F915F914F913F911C
:1004A0002F91FF90EF90DF90CF900F900FBE0F90A5
:1004B0001F901895E12CF12CA8EEB3E00E94170CC8
:1004C00069837A838B839C8328EC30E040E050E0A2
:1004D0000E94E00BC216D306E406F506C1CF41E048
:1004E00065E081E00E94730440E066E081E00E94E4
:1004F000730441E067E081E00E94730440E064E03F
:1005000081E00E94730441E064E081E00E9499056B
:100510006C9A6D986B986A98689A699870986E9AB8
:10052000089540E065E081E00E94730441E066E0E8
:1005300081E00E94730440E067E081E00E94730460
:1005400040E064E081E00E94730440E064E081E008
:100550000E94DD046C986D986B986A986E9A089565
:100560008FB9779BFECF779A8FB108958FB9779B1C
:10057000FECF779A08958FB108959C01FB0140E06A
:10058000842F90E0D901A80FB91F5C91511101C0CF
:1005900008955FB9779BFECF779A5FB18E0F9F1F4B
:1005A000DC015C934F5FECCF6F9A8FB90895909305
:1005B000A3008093A20008951F920F920FB60F928E
:1005C00011242F933F934F935F936F937F938F9358
:1005D0009F93AF93BF93EF93FF93CF93DF930F92CC
:1005E000CDB7DEB78FB18983E091A200F091A3006F
:1005F000CE01019609956F980F90DF91CF91FF91F1
:10060000EF91BF91AF919F918F917F916F915F918A
:100610004F913F912F910F900FBE0F901F90189503
:1006200080B58F7780BD83E389B910BC80B58068C1
:1006300080BD80B58F7B80BD80B58F7E80BD80B54D
:100640008F7D80BD80B5877F80BD80B5826080BD95
:1006500080B5846080BD5298539A549A08955D9BEA
:10066000FECF8CB95E9A0895FC015F9BFECF8CB1E2
:1006700080830895559A569A8093A6007093A80097
:100680006093A7000895579A9093A5008093A400C3
:1006900008958F93EF93FF93E091A400F091A5004C
:1006A0008CB18083FF91EF918F9118958F938091FA
:1006B000A6008CB98F9118951F920F920FB60F92CA
:1006C00011242F933F934F935F936F937F938F9357
:1006D0009F93AF93BF93EF93FF93E091A700F091A7
:1006E000A8000995FF91EF91BF91AF919F918F91D4
:1006F0007F916F915F914F913F912F910F900FBE1E
:100700000F901F901895813011F18230E9F181111D
:1007100046C08BB780648BBF623099F040F46111A2
:1007200009C085B7826085BF85B78E7F08C06330FA
:1007300059F0089585B7826085BF85B7816085BF10
:10074000089585B78D7FEFCF85B78D7FF5CF8BB7B8
:1007500080688BBF623091F040F4611109C085B7A9
:10076000886085BF85B78B7FEACF633051F00895ED
:1007700085B7886085BF85B78460E1CF85B7877FFF
:10078000F0CF85B7877FF6CF8BB780628BBF6623AC
:1007900019F0613029F0089584B78F7B84BF0895E4
:1007A00084B78064FBCF813041F0823049F0811101
:1007B00003C08BB78F7B8BBF08958BB78F77FBCF31
:1007C0008BB78F7DF8CF813049F0823061F0811195
:1007D0000EC06093AD007093AE0008956093AB00BF
:1007E0007093AC0008956093A9007093AA000895D7
:1007F0001F920F920FB60F9211242F933F934F9396
:100800005F936F937F938F939F93AF93BF93EF9378
:10081000FF93E091AD00F091AE00309709F009959B
:10082000FF91EF91BF91AF919F918F917F916F91C8
:100830005F914F913F912F910F900FBE0F901F909E
:1008400018951F920F920FB60F9211242F933F937A
:100850004F935F936F937F938F939F93AF93BF93C8
:10086000EF93FF93E091AB00F091AC00309709F06B
:100870000995FF91EF91BF91AF919F918F917F91DA
:100880006F915F914F913F912F910F900FBE0F90FD
:100890001F9018951F920F920FB60F9211242F934D
:1008A0003F934F935F936F937F938F939F93AF93F8
:1008B000BF93EF93FF93E091A900F091AA003097C6
:1008C00009F00995FF91EF91BF91AF919F918F91A1
:1008D0007F916F915F914F913F912F910F900FBE3C
:1008E0000F901F901895843030F5683020F5442320
:1008F00019F0413009F1089521E030E0A90102C06A
:10090000440F551F6A95E2F7BA016095823061F095
:10091000833071F0813021F08AB386238ABB089539
:1009200087B3862387BB089584B3862384BB089549
:1009300081B3862381BB089521E030E0A90102C084
:10094000440F551F6A95E2F7823051F0833059F019
:10095000813019F08AB3842BE1CF87B3842BE2CFA7
:1009600084B3842BE3CF81B3842BE4CF843020F590
:10097000662319F0613079F00895823041F08330B8
:1009800041F0813011F01ABA089517BA089514BAD7
:10099000089511BA0895823051F0833059F08130B2
:1009A00019F08FEF8ABB08958FEF87BB08958FEF03
:1009B00084BB08958FEF81BB0895843030F5683093
:1009C00020F5442319F0413009F1089521E030E089
:1009D000A90102C0440F551F6A95E2F7BA0160955C
:1009E000823061F0833071F0813021F08BB3862347
:1009F0008BBB089588B3862388BB089585B386236F
:100A000085BB089582B3862382BB089521E030E040
:100A1000A90102C0440F551F6A95E2F7823051F0D8
:100A2000833059F0813019F08BB3842BE1CF88B338
:100A3000842BE2CF85B3842BE3CF82B3842BE4CF26
:100A4000843068F4823041F0833041F0813011F01D
:100A50006BBB089568BB089565BB089562BB08959C
:100A60008430A0F4683090F421E030E0A90102C0A5
:100A7000440F551F6A95E2F7BA01823059F083306E
:100A800059F0813029F089B3982F9623892F089542
:100A900086B3FACF83B3F8CF80B3F6CF843038F47F
:100AA000823049F0833049F0813019F099B3892FB1
:100AB000089596B3FCCF93B3FACF90B3F8CF8430B8
:100AC000F8F46830E8F421E030E0A90102C0440FF6
:100AD000551F6A95E2F7823061F0833071F0813002
:100AE00021F08BB384278BBB089588B3842788BB00
:100AF000089585B3842785BB089582B3842782BB7C
:100B000008958430A8F4823061F0833071F0813030
:100B100021F08BB380958BBB089588B3809588BBFB
:100B2000089585B3809585BB089582B3809582BB77
:100B30000895843050F4683040F4442321F041306B
:100B400021F40C94DD0440E0FCCF0895843040F49F
:100B5000662321F0613021F40C94200560E0FCCF85
:100B60000895882331F0813019F48FB780688FBFE2
:100B700008958FB78F77FBCF3E9A3F983D98379A6D
:100B80003598339886B1887F86B9089597B1907E5D
:100B900097B9883050F4E82FF0E0E554F24F87B170
:100BA000807E0C94020C816087B9369A349BFECF0C
:100BB000349A84B195B108958260F6CF8360F4CF02
:100BC0008460F2CF8560F0CF8660EECF8760ECCF97
:100BD0009B019091AF00992351F1672B41F1109245
:100BE000AF0097B1907E97B9883050F4E82FF0E0CD
:100BF000ED53F24F87B1807E0C94020C816087B96F
:100C00003093B3002093B200369A339A8091B000AB
:100C10009091B10008958260F2CF8360F0CF84603C
:100C2000EECF8560ECCF8660EACF8760E8CF80E0CA
:100C300090E00895CF93DF9300D000D000D0CDB7DF
:100C4000DEB76D837E830E94C6059C01ED81FE8127
:100C500080833183A8E8B3E10E94080CDC01CB015A
:100C60002AE0B695A795979587952A95D1F793830E
:100C700082836AE070E00E94CC0B758364830F90DE
:100C80000F900F900F900F900F90DF91CF910895DC
:100C90001F920F920FB60F9211242F933F934F93F1
:100CA0005F936F937F938F939F93AF93BF93EF93D4
:100CB000FF9384B195B19093B1008093B00081E02F
:100CC0008093AF00E091B200F091B30009953398A2
:100CD000FF91EF91BF91AF919F918F917F916F9114
:100CE0005F914F913F912F910F900FBE0F901F90EA
:100CF000189586B7806286BF86B7806886BF06B6BD
:100D000007FEFDCF91B1987F21E030E0983011F4DB
:100D100020E030E0C901089586B7806286BF86B7BB
:100D2000806886BF06B607FEFDCF91B1987F21E0AF
:100D300030E0903111F420E030E0C901880F991FB4
:100D40000895880F83B9189886B78F7D86BF86B7B8
:100D5000806886BF06B607FEFDCF81B1887F8831E7
:100D600019F480E090E0089583E090E00895880F02
:100D700083B9189A86B78F7D86BF86B7806886BF8D
:100D800006B607FEFDCF81B1887F803419F480E07C
:100D900090E0089585E090E0089583B986B7806873
:100DA00086BF06B607FEFDCF81B1887F883219F471
:100DB00080E090E0089587E090E00895FC0186B718
:100DC000806886BF06B607FEFDCF81B1887F80357B
:100DD00029F480E090E023B12083089589E090E039
:100DE000FACF86B7806186BF86B7806886BF0895D0
:100DF00086B7806886BF06B607FEFDCF81B1887FC3
:100E0000803619F480E090E008958BE090E008953A
:100E100086B7806886BF06B607FEFDCF81B1887FA2
:100E2000883A19F480E090E008958CE090E008950D
:100E3000FC0186B7806886BF06B607FEFDCF81B18C
:100E4000887F803829F480E090E023B120830895E2
:100E50008DE090E0FACF83B986B7806886BF06B68A
:100E600007FEFDCF81B1887F883B19F480E090E0D8
:100E700008958FE090E0089586B7806486BF089556
:100E8000CF93C82F0E943C0782E080B90898099848
:100E9000CC2311F0CC0FC2B986B7846086BFCF9146
:100EA0000895880F82B90E943C0786B7846086BF88
:100EB000089586B78F7B86BF0895CF93C82F0E9471
:100EC0005907CC0FC3B9189886B78F7D86BF86B7F0
:100ED000806886BF06B607FEFDCF91B1987F21E0FE
:100EE00030E0903211F420E030E0C901880F991F02
:100EF000880F991FCF910895CF93C82F0E9459074B
:100F0000CC0FC3B9189A86B78F7D86BF86B7806825
:100F100086BF06B607FEFDCF81B1887F883421F4F5
:100F200080E090E0CF91089586E090E0FBCFCF93F2
:100F3000C82F0E945907C3B986B7806886BF06B616
:100F400007FEFDCF91B1987F21E030E0903311F49E
:100F500020E030E0C90123E0880F991F2A95E1F7CE
:100F6000CF910895CF93DF93EC010E94590786B784
:100F7000806886BF06B607FEFDCF81B1887F8835C1
:100F800039F480E090E023B12883DF91CF91089578
:100F90008AE090E0F8CFCF93DF93EC010E945907ED
:100FA00086B7806886BF06B607FEFDCF81B1887F11
:100FB000883839F480E090E023B12883DF91CF9125
:100FC00008958EE090E0F8CFCF93C82F0E94590784
:100FD000C3B986B7806886BF06B607FEFDCF91B15C
:100FE000987F21E030E0903C11F420E030E0C9012E
:100FF00024E0880F991F2A95E1F7CF91089589B7CA
:101000008F7D89BF0895882319F0813029F00895D4
:101010008EB58F7B8EBD08958EB58064FBCF0E9408
:1010200049008FB58E7F8FBD8FB58D7F8FBD8EB5FB
:10103000877F8EBD8EB58F7E8EBD8EB5887F8EBD2F
:101040008EB58E7F8EBD8EB582608EBD8EB58B7F48
:101050008EBD81E00E94030889B7806289BF089530
:1010600086B597B508959093B5008093B400089520
:101070001F920F920FB60F9211242F933F934F930D
:101080005F936F937F938F939F93AF93BF93EF93F0
:10109000FF93E091B400F091B500309709F0099505
:1010A000FF91EF91BF91AF919F918F917F916F9140
:1010B0005F914F913F912F910F900FBE0F901F9016
:1010C0001895843028F4683018F441E00C947304C7
:1010D0000895843018F461E00C94B60408958430C7
:1010E00050F4683040F4442321F0413021F40C9452
:1010F000DD0440E0FCCF0895843040F4662321F005
:10110000613021F40C94200560E0FCCF0895843018
:1011100020F4683010F40C945F050895843010F4C6
:101120000C9481050895823069F030F4811107C074
:1011300061E080E00C94B604833039F0089561E0FA
:1011400081E0F8CF61E082E0F5CF61E083E0F2CFAB
:10115000E42F662319F0613019F108958230A1F06F
:1011600050F450E081110AC0405A5F4FFA0160818B
:1011700080E00C942005833069F00895405A5F4F59
:10118000FA01608181E0F5CFF0E0E05AFF4F608125
:1011900082E0EFCFF0E0E05AFF4F608183E0E9CFDB
:1011A000823099F048F450E0811109C0405A5F4FF5
:1011B000FA0160816095DCCF833069F00895405A70
:1011C0005F4FFA0160816095DDCFF0E0E05AFF4F9C
:1011D00060816095DDCFF0E0E05AFF4F608160955F
:1011E000DDCF1F93CF93DF93C82FD62F142F8430DA
:1011F00068F4683058F440E00E947304412F6D2F6A
:101200008C2FDF91CF911F910C949905DF91CF9195
:101210001F910895CF93DF93C82FD62F843048F4C1
:1012200060E00E94B6046D2F8C2FDF91CF910C945B
:10123000A605DF91CF910895843020F4683010F432
:101240000C94300580E00895843010F40C944E0521
:1012500080E0089541E064E081E00E94730441E091
:1012600065E081E00E94730441E066E081E00E9455
:10127000730441E067E081E00E94730440E060E0B5
:1012800081E00E94730440E061E081E00E94730409
:1012900040E062E081E00E94730440E063E081E0AE
:1012A0000E94730441E060E081E00E94990541E002
:1012B00061E081E00E94990541E062E081E00E94E6
:1012C000990541E063E081E00E94990541E064E016
:1012D00081E00E94DD0441E065E081E00E94DD04E0
:1012E00041E066E081E00E94DD0441E067E081E0EA
:1012F0000C94DD04AF92BF92DF92EF92FF920F93B6
:101300001F93CF93DF934EE7E42E40E0F42E00E0EE
:1013100010E0DD24DA94F70161917F0140E081E083
:101320000E94DD043AE7A32E30E0B32EC0E0D0E007
:10133000F50161915F0181E00E94300581112EC0AD
:10134000CE01880F991F880F991F86599F4F5C0106
:10135000A00EB11EC658DF4FF501D080688181E034
:101360000E9430058823C1F3C1E041E0F7013197C5
:10137000608181E00E94DD04C13029F00F5F1F4FC2
:101380000430110541F68D2DDF91CF911F910F9102
:10139000FF90EF90DF90BF90AF9008952196C430FA
:1013A000D10531F6C0E0E1CFCF93DF9300D000D07C
:1013B0000F92CDB7DEB78D83998341E065E083E07E
:1013C0000E9473042D813981A8EEB3E00E94080CBD
:1013D000DC01CB0184599144AD4FBF4F89839A837F
:1013E000AB83BC83BC01CD0124EB30E040E050E096
:1013F0000E94E00B6FE17EE4C9010F900F900F9007
:101400000F900F90DF91CF910C948700CF93DF93D3
:1014100000D000D00F92CDB7DEB78D83998341E025
:1014200064E083E00E9473042D813981A8EEB3E06B
:101430000E94080CDC01CB0184599144AD4FBF4F91
:1014400089839A83AB83BC83BC01CD0124EB30E05C
:1014500040E050E00E94E00B6FE17EE4C9010F9094
:101460000F900F900F900F90DF91CF910C94900000
:10147000CF93C82F40E065E082E00E94DD0440E0A9
:1014800066E082E00E94DD046C2F83E00E9420056C
:1014900041E067E082E00E94DD048FE99FE0019770
:1014A000F1F700C0000040E067E082E0CF910C94CB
:1014B000DD0461E083E00E94B60441E065E082E083
:1014C0000E94730441E066E082E00E94730441E000
:1014D00067E082E00E9473042FEB8AED90E02150D8
:1014E00080409040E1F700C000008CE30E94380A81
:1014F0008FEC97E00197F1F700C000008CE00E94AC
:10150000380A8FEC97E00197F1F700C0000081E006
:101510000E94380A8FE99FE00197F1F700C00000B0
:1015200086E00E94380A8FEC97E00197F1F700C03F
:1015300000000895CF93C82F41E065E082E00E944B
:10154000DD0440E066E082E00E94DD046C2F83E071
:101550000E94200541E067E082E00E94DD048FE9FF
:101560009FE00197F1F700C0000040E067E082E0F3
:10157000CF910C94DD041F93CF93DF93EC0110E027
:10158000FE01E10FF11D8081811104C0DF91CF9137
:101590001F9108950E949A0A1F5FF2CFCF92DF92A7
:1015A000EF92FF920F931F93CF93DF93CDB7DEB7E8
:1015B00068970FB6F894DEBF0FBECDBF6D8B7E8BE4
:1015C0008F8B988F00E08AE0C82ED12CE12CF12C73
:1015D0008D899E89AF89B88D892B8A2B8B2BF1F44D
:1015E000015010E0E1E0F0E0EC0FFD1FE00FF11F13
:1015F0008081805D0E949A0A0150110998F76896CF
:101600000FB6F894DEBF0FBECDBFDF91CF911F9113
:101610000F91FF90EF90DF90CF9008956D897E89B4
:101620008F89988DA70196010E94E00BE1E0F0E020
:10163000EC0FFD1FE00FF11D60832D8B3E8B4F8B58
:10164000588F0F5FC5CF982F862F923048F46031A6
:1016500038F4913019F080580C94380A8054FCCF3B
:1016600008950F931F93CF93DF938B010E94380A45
:10167000E801085F1F4F89910E949A0AC017D1079D
:10168000D1F7DF91CF911F910F910895CF93C82F7C
:10169000862F642F0E94230B8C2FCF910C949A0AD3
:1016A00081E00C94380A87E00C94380A85E00C94A9
:1016B000380A0E94230B80E20C949A0ACF93DF939E
:1016C000D82FC0E06C2F8D2F0E94230B80E20E9448
:1016D0009A0ACF5FC031B1F7DF91CF9108951F9380
:1016E000CF93DF93D82F192FC62F0E947906812F11
:1016F00084650E94A1068D2F0E94CD068C2F0E942A
:10170000CD060E94F1068FE19EE40197F1F700C03B
:101710000000DF91CF911F9108950F931F93CF93F6
:10172000DF930F92CDB7DEB78C0114650E94790666
:10173000812F0E94A106802F0E94CD060E948C0658
:10174000812F0E94B706CE0101960E94B2070E9427
:10175000F1068FE19EE40197F1F700C00000898156
:101760000F90DF91CF911F910F91089560E081E07C
:101770000C94870881E00E94B1050E94990060E006
:1017800081E00E94610840E050E06AE774E486EB83
:101790009BE00E94AF00FFCFAA1BBB1B51E107C01B
:1017A000AA1FBB1FA617B70710F0A61BB70B881FF1
:1017B000991F5A95A9F780959095BC01CD01089580
:1017C000A1E21A2EAA1BBB1BFD010DC0AA1FBB1F45
:1017D000EE1FFF1FA217B307E407F50720F0A21BB7
:1017E000B30BE40BF50B661F771F881F991F1A9424
:1017F00069F760957095809590959B01AC01BD014E
:10180000CF010895EE0FFF1F0590F491E02D09948C
:10181000A29FB001B39FC001A39F700D811D112431
:10182000911DB29F700D811D1124911D08950E947C
:10183000080CA59F900DB49F900DA49F800D911D45
:10184000112408955058BB27AA270E943A0C0C94E3
:10185000120D0E94040D38F00E940B0D20F039F497
:101860009F3F19F426F40C94010D0EF4E095E7FB6C
:101870000C94FB0CE92F0E94230D58F3BA17620752
:1018800073078407950720F079F4A6F50C94450DAD
:101890000EF4E0950B2EBA2FA02D0B01B90190018B
:1018A0000C01CA01A0011124FF27591B99F0593FCF
:1018B00050F4503E68F11A16F040A22F232F342F17
:1018C0004427585FF3CF469537952795A795F04065
:1018D0005395C9F77EF41F16BA0B620B730B840B7A
:1018E000BAF09150A1F0FF0FBB1F661F771F881F32
:1018F000C2F70EC0BA0F621F731F841F48F487958A
:1019000077956795B795F7959E3F08F0B0CF93957B
:10191000880F08F09927EE0F9795879508950E94F4
:101920002B0D88F09F5798F0B92F9927B751B0F039
:10193000E1F0660F771F881F991F1AF0BA95C9F753
:1019400014C0B13091F00E94450DB1E008950C949F
:10195000450D672F782F8827B85F39F0B93FCCF352
:10196000869577956795B395D9F73EF490958095D0
:10197000709561957F4F8F4F9F4F0895E89409C0F0
:1019800097FB3EF490958095709561957F4F8F4FB2
:101990009F4F9923A9F0F92F96E9BB279395F695C8
:1019A000879577956795B795F111F8CFFAF4BB0F46
:1019B00011F460FF1BC06F5F7F4F8F4F9F4F16C0AA
:1019C000882311F096E911C0772321F09EE8872F34
:1019D000762F05C0662371F096E8862F70E060E0F0
:1019E0002AF09A95660F771F881FDAF7880F969569
:1019F000879597F9089597F99F6780E870E060E010
:101A000008959FEF80EC089500240A941616170697
:101A100018060906089500240A94121613061406DF
:101A200005060895092E0394000C11F4882352F042
:101A3000BB0F40F4BF2B11F460FF04C06F5F7F4FFA
:101A40008F4F9F4F089557FD9058440F551F59F0E1
:101A50005F3F71F04795880F97FB991F61F09F3F9B
:101A600079F087950895121613061406551FF2CFC4
:101A70004695F1DF08C0161617061806991FF1CF14
:101A800086957105610508940895E894BB2766273B
:101A90007727CB0197F908950E945F0D0C94120DE2
:101AA0000E94040D38F00E940B0D20F0952311F0D8
:101AB0000C94FB0C0C94010D11240C94460D0E9407
:101AC000230D70F3959FC1F3950F50E0551F629F52
:101AD000F001729FBB27F00DB11D639FAA27F00D87
:101AE000B11DAA1F649F6627B00DA11D661F829FAE
:101AF0002227B00DA11D621F739FB00DA11D621F93
:101B0000839FA00D611D221F749F3327A00D611DAF
:101B1000231F849F600D211D822F762F6A2F112491
:101B20009F5750409AF0F1F088234AF0EE0FFF1FC4
:101B3000BB1F661F771F881F91505040A9F79E3F1B
:101B4000510580F00C94FB0C0C94460D5F3FE4F3C0
:101B5000983ED4F3869577956795B795F795E79571
:101B60009F5FC1F7FE2B880F911D9695879597F97A
:101B70000895F894FFCFD405D305DC05DE05E00514
:101B8000E205E405E605FF05FE050B060D060F065A
:061B900011061306150604
:101B9600C0F9A4B0999282F880903738392F34353D
:101BA600362A3132332D23303D2B00010203040542
:021BB600060720
:00000001FF
