:100000000C942A000C94DB020C9404030C942D0332
:100010000C943C000C943C000C943C000C943C0070
:100020000C943C000C943C000C94F0010C949C014A
:100030000C943C000C943C000C943C000C943C0050
:100040000C942B050C943C000C943C000C943C004C
:100050000C943C0011241FBECFE5D8E0DEBFCDBF1D
:1000600020E0A0E6B0E001C01D92AB38B207E1F796
:100070000E94C9060C94C8080C9400008FB58E7FAE
:100080008FBD8FB582608FBD8EB588608EBD8EB5F9
:1000900080618EBD8FB58F7B8FBD8FB580688FBD22
:1000A0008FB58F7E8FBD8FB58F7D8FBD8EB5887FCD
:1000B0008EBD8EB58E7F8EBD8EB582608EBD8EB5A7
:1000C0008B7F8EBD0895909369008093680008959A
:1000D0009093670080936600089508959BBD8ABD44
:1000E0009093630080936200089599BD88BD9093BA
:1000F00061008093600008959BBD8ABD909363006A
:100100008093620077BD66BD089599BD88BD9093C8
:1001100061008093600077BD66BD089583B78F7BD3
:1001200083BF83B7877F83BF89B7816089BF83B768
:10013000887F83BF83B78E7F83BF83B7826083BF8F
:1001400083B78B7F83BF0895EF92FF920F931F9326
:10015000CF93DF9300D000D000D0CDB7DEB77C01C5
:10016000942F852F20E030E04AE754E499838A8376
:100170006B837C8369817A818B819C810E945B087F
:1001800020E030E040E85BE369837A838B839C83E3
:1001900069817A818B819C810E945B088B018E83AF
:1001A0009D8369831A838B839C8369817A818B8188
:1001B0009C810E949E0760936A0070936B008093FD
:1001C0006C0090936D000E94CD079B01AC0169818A
:1001D0007A818B819C810E94310720E030E040E8E9
:1001E00053E469837A838B839C8369817A818B81D1
:1001F0009C810E945B089B01AC0160E070E080E89C
:1002000093E40E94310769837A838B839C8369819D
:100210007A818B819C810E949E078FEF860F8E3F93
:10022000C8F462BF70E070937500609374008091B1
:100230006A0090916B00A0916C00B0916D000196E6
:10024000A11DB11D80936A0090936B00A0936C0078
:10025000B0936D00E0927800F09279000F900F90CB
:100260000F900F900F900F90DF91CF911F910F91F2
:10027000FF90EF9008959093770080937600089513
:1002800082BF90E090937500809374000895089564
:10029000909377008093760040936E0050936F00A8
:1002A00060937000709371000895CF92DF92EF9287
:1002B000FF92CF93DF9300D000D0CDB7DEB7698334
:1002C0007A838B839C8389B78D7F89BFA8EEB3E047
:1002D00029813A814B815C810E94260769837A8358
:1002E0008B839C8328EC30E040E050E00E94EF06D6
:1002F000C12CD12C7601C216D306E406F50671F4A2
:1003000089B7826089BF0F900F900F900F90DF9197
:10031000CF91FF90EF90DF90CF90089588B78270D3
:100320008823E1F388B7826088BF8FEFC81AD80AA4
:10033000E80AF80AE0CF08951F920F920FB60F92C5
:1003400011242F933F934F935F936F937F938F93DA
:100350009F93AF93BF93EF93FF9380917C00909115
:100360007D00A0917E00B0917F000196A11DB11D7E
:1003700080937C0090937D00A0937E00B0937F00DB
:1003800040916A0050916B0060916C0070916D001B
:1003900084179507A607B70791F4E0917800F091CC
:1003A0007900309709F0099510927C0010927D0039
:1003B00010927E0010927F008091740082BFFF91A6
:1003C000EF91BF91AF919F918F917F916F915F91CD
:1003D0004F913F912F910F900FBE0F901F90189546
:1003E0001F920F920FB60F921124CF92DF92EF92CD
:1003F000FF922F933F934F935F936F937F938F93CE
:100400009F93AF93BF93EF93FF93CF93DF9300D06E
:1004100000D0CDB7DEB720916E0030916F004091D3
:10042000700050917100C0907A00D0907B008FEFE7
:10043000C81AD80AD0927B00C0927A0021153105E3
:100440004105510571F588E8C81683E1D80671F4B5
:10045000E0917600F0917700309709F009951092BD
:100460007B0010927A00809172008CBF0F900F90E9
:100470000F900F90DF91CF91FF91EF91BF91AF91CE
:100480009F918F917F916F915F914F913F912F91AC
:10049000FF90EF90DF90CF900F900FBE0F901F90C6
:1004A0001895E12CF12CA8EEB3E00E942607698391
:1004B0007A838B839C8328EC30E040E050E00E94FC
:1004C000EF06C216D306E406F506C1CF813011F15E
:1004D0008230E9F1811146C08BB780648BBF6230F6
:1004E00099F040F4611109C085B7826085BF85B776
:1004F0008E7F08C0633059F0089585B7826085BF4C
:1005000085B7816085BF089585B78D7FEFCF85B7AB
:100510008D7FF5CF8BB780688BBF623091F040F450
:10052000611109C085B7886085BF85B78B7FEACF29
:10053000633051F0089585B7886085BF85B78460C2
:10054000E1CF85B7877FF0CF85B7877FF6CF8BB7B1
:1005500080628BBF662319F0613029F0089584B75B
:100560008F7B84BF089584B78064FBCF813041F0D6
:10057000823049F0811103C08BB78F7B8BBF089508
:100580008BB78F77FBCF8BB78F7DF8CF813049F05A
:10059000823061F081110EC06093840070938500F9
:1005A00008956093820070938300089560938000A3
:1005B0007093810008951F920F920FB60F9211242D
:1005C0002F933F934F935F936F937F938F939F935B
:1005D000AF93BF93EF93FF93E0918400F091850078
:1005E000309709F00995FF91EF91BF91AF919F91DD
:1005F0008F917F916F915F914F913F912F910F90CC
:100600000FBE0F901F9018951F920F920FB60F926A
:1006100011242F933F934F935F936F937F938F9307
:100620009F93AF93BF93EF93FF93E0918200F0917C
:100630008300309709F00995FF91EF91BF91AF9139
:100640009F918F917F916F915F914F913F912F91EA
:100650000F900FBE0F901F9018951F920F920FB61C
:100660000F9211242F933F934F935F936F937F9338
:100670008F939F93AF93BF93EF93FF93E09180008D
:10068000F0918100309709F00995FF91EF91BF91AA
:10069000AF919F918F917F916F915F914F913F911A
:1006A0002F910F900FBE0F901F901895843030F54A
:1006B000683020F5442319F0413009F1089521E014
:1006C00030E0A90102C0440F551F6A95E2F7BA0154
:1006D0006095823061F0833071F0813021F08AB30F
:1006E00086238ABB089587B3862387BB089584B386
:1006F000862384BB089581B3862381BB089521E0BE
:1007000030E0A90102C0440F551F6A95E2F782301C
:1007100051F0833059F0813019F08AB3842BE1CF46
:1007200087B3842BE2CF84B3842BE3CF81B3842BB4
:10073000E4CF843020F5662319F0613079F0089514
:10074000823041F0833041F0813011F01ABA0895BF
:1007500017BA089514BA089511BA0895823051F065
:10076000833059F0813019F08FEF8ABB08958FEFF5
:1007700087BB08958FEF84BB08958FEF81BB0895E9
:10078000843030F5683020F5442319F0413009F108
:10079000089521E030E0A90102C0440F551F6A9579
:1007A000E2F7BA016095823061F0833071F08130F8
:1007B00021F08BB386238BBB089588B3862388BB37
:1007C000089585B3862385BB089582B3862382BBB3
:1007D000089521E030E0A90102C0440F551F6A9539
:1007E000E2F7823051F0833059F0813019F08BB349
:1007F000842BE1CF88B3842BE2CF85B3842BE3CF66
:1008000082B3842BE4CF843068F4823041F08330AB
:1008100041F0813011F06BBB089568BB089565BB52
:10082000089562BB08958430A0F4683090F421E00C
:1008300030E0A90102C0440F551F6A95E2F7BA01E2
:10084000823059F0833059F0813029F089B3982FE4
:100850009623892F089586B3FACF83B3F8CF80B358
:10086000F6CF843038F4823049F0833049F081305B
:1008700019F099B3892F089596B3FCCF93B3FACFAB
:1008800090B3F8CF8430F8F46830E8F421E030E039
:10089000A90102C0440F551F6A95E2F7823061F04A
:1008A000833071F0813021F08BB384278BBB0895A6
:1008B00088B3842788BB089585B3842785BB0895B2
:1008C00082B3842782BB08958430A8F4823061F01B
:1008D000833071F0813021F08BB380958BBB08950C
:1008E00088B3809588BB089585B3809585BB0895AE
:1008F00082B3809582BB0895843050F4683040F410
:10090000442321F0413021F40C94C00340E0FCCF9B
:100910000895843040F4662321F0613021F40C9472
:10092000030460E0FCCF0895882331F0813019F48E
:100930008FB780688FBF08958FB78F77FBCF3E9AB0
:100940003F983D98379A3598339886B1887F86B915
:10095000089597B1907E97B9883050F4E82FF0E071
:10096000E653F74F87B1807E0C941107816087B9F9
:10097000369A349BFECF349A84B195B10895826043
:10098000F6CF8360F4CF8460F2CF8560F0CF8660CD
:10099000EECF8760ECCF9B0190918600992351F1B7
:1009A000672B41F11092860097B1907E97B98830FD
:1009B00050F4E82FF0E0EE52F74F87B1807E0C94B0
:1009C0001107816087B930938A0020938900369A95
:1009D000339A809187009091880008958260F2CFC9
:1009E0008360F0CF8460EECF8560ECCF8660EACF85
:1009F0008760E8CF80E090E00895CF93DF9300D048
:100A000000D000D0CDB7DEB76D837E830E94A904ED
:100A10009C01ED81FE8180833183A8E8B3E10E94CF
:100A20001707DC01CB012AE0B695A7959795879526
:100A30002A95D1F7938382836AE070E00E94DB06F7
:100A4000758364830F900F900F900F900F900F900D
:100A5000DF91CF9108951F920F920FB60F9211243C
:100A60002F933F934F935F936F937F938F939F93B6
:100A7000AF93BF93EF93FF9384B195B190938800A8
:100A80008093870081E080938600E0918900F09157
:100A90008A0009953398FF91EF91BF91AF919F9193
:100AA0008F917F916F915F914F913F912F910F9017
:100AB0000FBE0F901F901895843028F4683018F4FA
:100AC00041E00C9456030895843018F461E00C94CE
:100AD00099030895843050F4683040F4442321F0A1
:100AE000413021F40C94C00340E0FCCF08958430E1
:100AF00040F4662321F0613021F40C94030460E09B
:100B0000FCCF0895843020F4683010F40C94420433
:100B10000895843010F40C9464040895CF93C82F82
:100B200040E065E082E00E94C00340E066E082E0D1
:100B30000E94C0036C2F83E00E94030441E067E041
:100B400082E00E94C0038FE99FE00197F1F700C0A7
:100B5000000040E067E082E0CF910C94C00361E0C8
:100B600083E00E94990341E065E082E00E94560321
:100B700041E066E082E00E94560341E067E082E0E7
:100B80000E9456032FEB8AED90E021508040904068
:100B9000E1F700C000008CE30E948E058FEC97E027
:100BA0000197F1F700C000008CE00E948E058FECE9
:100BB00097E00197F1F700C0000081E00E948E05E8
:100BC0008FE99FE00197F1F700C0000086E00E94E6
:100BD0008E058FEC97E00197F1F700C000000895B3
:100BE000CF93C82F41E065E082E00E94C00340E05F
:100BF00066E082E00E94C0036C2F83E00E94030441
:100C000041E067E082E00E94C0038FE99FE0019726
:100C1000F1F700C0000040E067E082E0CF910C9463
:100C2000C0031F93CF93DF93EC0110E0FE01E10FAF
:100C3000F11D8081811104C0DF91CF911F91089532
:100C40000E94F0051F5FF2CFCF92DF92EF92FF92EA
:100C50000F931F93CF93DF93CDB7DEB768970FB68F
:100C6000F894DEBF0FBECDBF6D8B7E8B8F8B988FC0
:100C700000E08AE0C82ED12CE12CF12C8D899E89D0
:100C8000AF89B88D892B8A2B8B2BF1F4015010E0A2
:100C9000E1E0F0E0EC0FFD1FE00FF11F8081805DCF
:100CA0000E94F0050150110998F768960FB6F89464
:100CB000DEBF0FBECDBFDF91CF911F910F91FF908F
:100CC000EF90DF90CF9008956D897E898F89988D00
:100CD000A70196010E94EF06E1E0F0E0EC0FFD1F96
:100CE000E00FF11D60832D8B3E8B4F8B588F0F5F74
:100CF000C5CF982F862F923048F4603138F4913068
:100D000019F080580C948E058054FCCF08950F93F1
:100D10001F93CF93DF938B010E948E05E801085F3C
:100D20001F4F89910E94F005C017D107D1F7DF91BD
:100D3000CF911F910F910895CF93C82F862F642FC5
:100D40000E9479068C2FCF910C94F00581E00C94D1
:100D50008E0587E00C948E0585E00C948E050E942C
:100D6000790680E20C94F005CF93DF93D82FC0E092
:100D70006C2F8D2F0E94790680E20E94F005CF5FD4
:100D8000C031B1F7DF91CF91089560E081E00C941C
:100D9000820581E00E9494040E948E0060E081E060
:100DA0000E945C0540E050E060EA71E485EC96E06A
:100DB0000E94A400FFCFAA1BBB1B51E107C0AA1FC2
:100DC000BB1FA617B70710F0A61BB70B881F991FEC
:100DD0005A95A9F780959095BC01CD010895A1E29F
:100DE0001A2EAA1BBB1BFD010DC0AA1FBB1FEE1FA5
:100DF000FF1FA217B307E407F50720F0A21BB30BF0
:100E0000E40BF50B661F771F881F991F1A9469F76B
:100E100060957095809590959B01AC01BD01CF01C7
:100E20000895EE0FFF1F0590F491E02D0994A29F05
:100E3000B001B39FC001A39F700D811D1124911DAE
:100E4000B29F700D811D1124911D08950E941707F6
:100E5000A59F900DB49F900DA49F800D911D11240E
:100E600008955058BB27AA270E9449070C942108CF
:100E70000E94130838F00E941A0820F039F49F3FAE
:100E800019F426F40C9410080EF4E095E7FB0C948A
:100E90000A08E92F0E94320858F3BA17620773074D
:100EA0008407950720F079F4A6F50C9454080EF405
:100EB000E0950B2EBA2FA02D0B01B90190010C016A
:100EC000CA01A0011124FF27591B99F0593F50F482
:100ED000503E68F11A16F040A22F232F342F4427DA
:100EE000585FF3CF469537952795A795F0405395D2
:100EF000C9F77EF41F16BA0B620B730B840BBAF0A2
:100F00009150A1F0FF0FBB1F661F771F881FC2F70C
:100F10000EC0BA0F621F731F841F48F48795779520
:100F20006795B795F7959E3F08F0B0CF9395880FDA
:100F300008F09927EE0F9795879508950E943A0833
:100F400088F09F5798F0B92F9927B751B0F0E1F08A
:100F5000660F771F881F991F1AF0BA95C9F714C03A
:100F6000B13091F00E945408B1E008950C945408F7
:100F7000672F782F8827B85F39F0B93FCCF3869573
:100F800077956795B395D9F73EF4909580957095D0
:100F900061957F4F8F4F9F4F0895E89409C097FB4D
:100FA0003EF490958095709561957F4F8F4F9F4F40
:100FB0009923A9F0F92F96E9BB279395F695879584
:100FC00077956795B795F111F8CFFAF4BB0F11F447
:100FD00060FF1BC06F5F7F4F8F4F9F4F16C08823EE
:100FE00011F096E911C0772321F09EE8872F762F24
:100FF00005C0662371F096E8862F70E060E02AF065
:101000009A95660F771F881FDAF7880F9695879550
:1010100097F9089597F99F6780E870E060E0089578
:101020009FEF80EC089500240A9416161706180600
:101030000906089500240A941216130614060506DC
:101040000895092E0394000C11F4882352F0BB0F6D
:1010500040F4BF2B11F460FF04C06F5F7F4F8F4FD0
:101060009F4F089557FD9058440F551F59F05F3F0B
:1010700071F04795880F97FB991F61F09F3F79F0BA
:1010800087950895121613061406551FF2CF46953C
:10109000F1DF08C0161617061806991FF1CF8695BE
:1010A0007105610508940895E894BB2766277727A2
:1010B000CB0197F908950E946E080C9421080E94B4
:1010C000130838F00E941A0820F0952311F00C94B0
:1010D0000A080C94100811240C9455080E94320838
:1010E00070F3959FC1F3950F50E0551F629FF0017B
:1010F000729FBB27F00DB11D639FAA27F00DB11D94
:10110000AA1F649F6627B00DA11D661F829F22271C
:10111000B00DA11D621F739FB00DA11D621F839FA3
:10112000A00D611D221F749F3327A00D611D231F79
:10113000849F600D211D822F762F6A2F11249F57C7
:1011400050409AF0F1F088234AF0EE0FFF1FBB1FCA
:10115000661F771F881F91505040A9F79E3F510589
:1011600080F00C940A080C9455085F3FE4F3983E15
:10117000D4F3869577956795B795F795E7959F5F33
:10118000C1F7FE2B880F911D9695879597F90895C5
:10119000F894FFCFB704B604BF04C104C304C50468
:1011A000C704C904E204E104EE04F004F204F40408
:0411B000F604F80445
:00000001FF
