:100000000C942A000C94BE000C94E7000C94100190
:100010000C9447000C9447000C9447000C94470044
:100020000C9447000C9447000C9447000C94470034
:100030000C9447000C9447000C9447000C94470024
:100040000C940E030C9447000C9447000C9447004A
:100050000C94470011241FBECFE5D8E0DEBFCDBF12
:1000600010E0A0E6B0E0E8EDFAE002C005900D92E5
:10007000A437B107D9F720E0A4E7B0E001C01D9292
:10008000AF37B207E1F70E9476040C945A050C943E
:100090000000813011F18230E9F1811146C08BB747
:1000A00080648BBF623099F040F4611109C085B75C
:1000B000826085BF85B78E7F08C0633059F0089590
:1000C00085B7826085BF85B7816085BF089585B794
:1000D0008D7FEFCF85B78D7FF5CF8BB780688BBFD6
:1000E000623091F040F4611109C085B7886085BF26
:1000F00085B78B7FEACF633051F0089585B788606C
:1001000085BF85B78460E1CF85B7877FF0CF85B79E
:10011000877FF6CF8BB780628BBF662319F0613083
:1001200029F0089584B78F7B84BF089584B78064D5
:10013000FBCF813041F0823049F0811103C08BB791
:100140008F7B8BBF08958BB78F77FBCF8BB78F7D5E
:10015000F8CF813049F0823061F081110EC0609398
:10016000780070937900089560937600709377001B
:100170000895609374007093750008951F920F9214
:100180000FB60F9211242F933F934F935F936F936A
:100190007F938F939F93AF93BF93EF93FF93E091E0
:1001A0007800F0917900309709F00995FF91EF916F
:1001B000BF91AF919F918F917F916F915F914F917F
:1001C0003F912F910F900FBE0F901F9018951F9287
:1001D0000F920FB60F9211242F933F934F935F937B
:1001E0006F937F938F939F93AF93BF93EF93FF93FF
:1001F000E0917600F0917700309709F00995FF9132
:10020000EF91BF91AF919F918F917F916F915F918E
:100210004F913F912F910F900FBE0F901F90189507
:100220001F920F920FB60F9211242F933F934F936B
:100230005F936F937F938F939F93AF93BF93EF934E
:10024000FF93E0917400F0917500309709F00995E3
:10025000FF91EF91BF91AF919F918F917F916F919E
:100260005F914F913F912F910F900FBE0F901F9074
:100270001895843030F5683020F5442319F041306A
:1002800009F1089521E030E0A90102C0440F551F93
:100290006A95E2F7BA016095823061F0833071F0BF
:1002A000813021F08AB386238ABB089587B38623E1
:1002B00087BB089584B3862384BB089581B38623C6
:1002C00081BB089521E030E0A90102C0440F551F11
:1002D0006A95E2F7823051F0833059F0813019F09D
:1002E0008AB3842BE1CF87B3842BE2CF84B3842BF2
:1002F000E3CF81B3842BE4CF843020F5662319F05B
:10030000613079F00895823041F0833041F08130DE
:1003100011F01ABA089517BA089514BA089511BAC7
:100320000895823051F0833059F0813019F08FEF09
:100330008ABB08958FEF87BB08958FEF84BB089524
:100340008FEF81BB0895843030F5683020F5442369
:1003500019F0413009F1089521E030E0A90102C00F
:10036000440F551F6A95E2F7BA016095823061F03B
:10037000833071F0813021F08BB386238BBB0895DD
:1003800088B3862388BB089585B3862385BB0895EB
:1003900082B3862382BB089521E030E0A90102C028
:1003A000440F551F6A95E2F7823051F0833059F0BF
:1003B000813019F08BB3842BE1CF88B3842BE2CF4B
:1003C00085B3842BE3CF82B3842BE4CF843068F4ED
:1003D000823041F0833041F0813011F06BBB0895E1
:1003E00068BB089565BB089562BB08958430A0F48E
:1003F000683090F421E030E0A90102C0440F551F9D
:100400006A95E2F7BA01823059F0833059F08130B1
:1004100029F089B3982F9623892F089586B3FACFB0
:1004200083B3F8CF80B3F6CF843038F4823049F00C
:10043000833049F0813019F099B3892F089596B32C
:10044000FCCF93B3FACF90B3F8CF8430F8F4683090
:10045000E8F421E030E0A90102C0440F551F6A957D
:10046000E2F7823061F0833071F0813021F08BB39C
:1004700084278BBB089588B3842788BB089585B3F0
:10048000842785BB089582B3842782BB0895843076
:10049000A8F4823061F0833071F0813021F08BB3A9
:1004A00080958BBB089588B3809588BB089585B3EC
:1004B000809585BB089582B3809582BB0895843072
:1004C00050F4683040F4442321F0413021F40C947E
:1004D000A30140E0FCCF0895843040F4662321F06E
:1004E000613021F40C94E60160E0FCCF089588238C
:1004F00031F0813019F48FB780688FBF08958FB7BE
:100500008F77FBCF3E9A3F983D98379A359833982E
:1005100086B1887F86B9089597B1907E97B9883063
:1005200050F4E82FF0E0E45AFA4F87B1807E0C9443
:100530004505816087B9369A349BFECF349A84B1E1
:1005400095B108958260F6CF8360F4CF8460F2CFD6
:100550008560F0CF8660EECF8760ECCF9B019091F5
:100560007A00992351F1672B41F110927A0097B1EB
:10057000907E97B9883050F4E82FF0E0EC59FA4FAC
:1005800087B1807E0C944505816087B930937E00E9
:1005900020937D00369A339A80917B0090917C0065
:1005A00008958260F2CF8360F0CF8460EECF8560E3
:1005B000ECCF8660EACF8760E8CF80E090E00895D6
:1005C000CF93DF9300D000D000D0CDB7DEB76D83DE
:1005D0007E830E948C029C01ED81FE8180833183A9
:1005E000A8E8B3E10E944B05DC01CB012AE0B695F7
:1005F000A795979587952A95D1F7938382836AE08B
:1006000070E00E940F05758364830F900F900F9028
:100610000F900F900F90DF91CF9108951F920F923E
:100620000FB60F9211242F933F934F935F936F93C5
:100630007F938F939F93AF93BF93EF93FF9384B177
:1006400095B190937C0080937B0081E080937A0049
:10065000E0917D00F0917E0009953398FF91EF9134
:10066000BF91AF919F918F917F916F915F914F91CA
:100670003F912F910F900FBE0F901F901895CF9321
:10068000C82F40E065E082E00E94A30140E066E000
:1006900082E00E94A3016C2F83E00E94E60141E00A
:1006A00067E082E00E94A3018FE99FE00197F1F7E4
:1006B00000C0000040E067E082E0CF910C94A3010D
:1006C00061E083E00E947C0141E065E082E00E94FD
:1006D000390141E066E082E00E94390141E067E0D3
:1006E00082E00E9439012FEB8AED90E0215080409A
:1006F0009040E1F700C000008CE30E943F038FECC4
:1007000097E00197F1F700C000008CE00E943F03E2
:100710008FEC97E00197F1F700C0000081E00E94A4
:100720003F038FE99FE00197F1F700C0000086E0EA
:100730000E943F038FEC97E00197F1F700C00000A3
:100740000895CF93C82F41E065E082E00E94A301A5
:1007500040E066E082E00E94A3016C2F83E00E94EB
:10076000E60141E067E082E00E94A3018FE99FE09B
:100770000197F1F700C0000040E067E082E0CF9110
:100780000C94A3011F93CF93DF93EC0110E0FE01C3
:10079000E10FF11D8081811104C0DF91CF911F9184
:1007A00008950E94A1031F5FF2CFCF92DF92EF92D4
:1007B000FF920F931F93CF93DF93CDB7DEB7689768
:1007C0000FB6F894DEBF0FBECDBF6D8B7E8B8F8BC7
:1007D000988F00E08AE0C82ED12CE12CF12C8D8975
:1007E0009E89AF89B88D892B8A2B8B2BF1F4015010
:1007F00010E0E1E0F0E0EC0FFD1FE00FF11F808161
:10080000805D0E94A1030150110998F768960FB608
:10081000F894DEBF0FBECDBFDF91CF911F910F9136
:10082000FF90EF90DF90CF9008956D897E898F893A
:10083000988DA70196010E942305E1E0F0E0EC0FFE
:10084000FD1FE00FF11D60832D8B3E8B4F8B588F6A
:100850000F5FC5CF982F862F923048F4603138F45F
:10086000913019F080580C943F038054FCCF0895C8
:100870000F931F93CF93DF938B010E943F03E801F7
:10088000085F1F4F89910E94A103C017D107D1F7BC
:10089000DF91CF911F910F910895CF93C82F862F8D
:1008A000642F0E942A048C2FCF910C94A10381E025
:1008B0000C943F0387E00C943F0385E00C943F03C6
:1008C0000E942A0480E20C94A103CF93DF93D82FD7
:1008D000C0E06C2F8D2F0E942A0480E20E94A103A9
:1008E000CF5FC031B1F7DF91CF91089500D000D034
:1008F000CDB7DEB70E9460030E94820241E060E053
:1009000081E00E94390141E060E081E00E94A301A2
:1009100080E00E948C027C010E94570460E080E02D
:100920000E942A0480E690E00E94C2039701A8E892
:10093000B3E10E944B05DC01CB012AE0B695A795F7
:10094000979587952A95D1F79C01AD0144275527A6
:10095000CA01B9010E94D50387E690E00E94C20354
:1009600081E00E948C027C0160E081E00E942A0408
:1009700082E690E00E94C2039701A8E8B3E10E94DA
:100980004B05DC01CB013AE0B695A7959795879585
:100990003A95D1F76AE070E00E940F05CB01A0E024
:1009A000B0E0BC01CD010E94D5038BE690E00E942F
:1009B000C20382E00E948C029C01A8E8B3E10E947D
:1009C0004B056B017C014AE0F694E794D794C794F9
:1009D0004A95D1F78EE690E00E94C203A7019601E6
:1009E0004427552729833A834B835C83CA01B90185
:1009F0000E94D50341E030EDC31637E0D30608F47A
:100A000040E060E081E00E94A3014FEF52E587E003
:100A1000415050408040E1F700C0000079CFAA1B50
:100A2000BB1B51E107C0AA1FBB1FA617B70710F0D9
:100A3000A61BB70B881F991F5A95A9F7809590950B
:100A4000BC01CD010895A1E21A2EAA1BBB1BFD011A
:100A50000DC0AA1FBB1FEE1FFF1FA217B307E4079D
:100A6000F50720F0A21BB30BE40BF50B661F771FF5
:100A7000881F991F1A9469F76095709580959095D5
:100A80009B01AC01BD01CF010895EE0FFF1F059042
:100A9000F491E02D0994A29FB001B39FC001A39FE0
:100AA000700D811D1124911DB29F700D811D1124A7
:100AB000911D0895F894FFCF9A029902A202A40210
:100AC000A602A802AA02AC02C502C402D102D30245
:080AD000D502D702D902DB02B6
:100AD800504F54203D2000206D7600204300202DEB
:040AE80020413D006C
:00000001FF
