:100000000C942A000C943F000C943F000C943F0089
:100010000C943F000C943F000C943F000C943F0064
:100020000C943F000C943F000C943F000C943F0054
:100030000C943F000C943F000C943F000C943F0044
:100040000C943F000C943F000C943F000C943F0034
:100050000C943F0011241FBECFE5D8E0DEBFCDBF1A
:1000600010E0A0E6B0E0EEEAF7E002C005900D92E5
:10007000AE39B107D9F70E945D000C94D5030C94FA
:1000800000004B3249F018F44A3251F012C04D32A0
:1000900029F04F3249F00DC0860F0895861B089550
:1000A000869F802D11240895662329F00E94A703BE
:1000B000089580E0089580E008950E94B3000E94B2
:1000C0007C0188E790E00E94DC010E9404018332F9
:1000D000E1F70E9430028AE890E00E94DC012FEFF5
:1000E00089E698E1215080409040E1F700C000008F
:1000F0000E9430020E940401C82F682F70E080E047
:1001000090E00E94EF010E940401182F0E94BA01A2
:100110000E940401D82F682F70E080E090E00E94D8
:10012000EF010E9404018D3329F7412F6D2F8C2F91
:100130000E944100C82F0E94300286E990E00E9490
:10014000DC016C2F70E080E090E00E94EF012FEF67
:1001500083ED90E3215080409040E1F700C0000023
:100160000E943002C7CF41E064E082E00E94340286
:1001700041E065E082E00E94340241E066E082E016
:100180000E94340241E067E082E00E94340240E0D5
:1001900060E082E00E94340240E061E082E00E9480
:1001A000340240E062E082E00E94340240E063E01A
:1001B00082E00E94340241E060E082E00E94980305
:1001C00041E061E082E00E94980341E062E082E069
:1001D0000E94980341E063E082E00E94980341E0BE
:1001E00064E082E00E94D60241E065E082E00E9485
:1001F000D60241E066E082E00E94D60241E067E07C
:1002000082E00E94D6020895CF92DF92EF92FF9291
:100210000F931F93CF93DF93D12CCC24CA94D0E0BB
:100220003DC0ED2EF12CF701EC58FF4F40E060810E
:1002300082E00E94D602C0E023C00C2F10E0F8013B
:10024000E059FF4F608182E00E945F03811117C077
:1002500013C0F801EE0FFF1FEE0FFF1FE05AFF4F14
:10026000EE0DFF1DC080F801E059FF4F608182E074
:100270000E945F03DD24D394882359F303C0CF5F2A
:10028000C430D8F2F701EC58FF4F41E0608182E0C2
:100290000E94D60281E0D81619F0DF5FD43008F250
:1002A0008C2DDF91CF911F910F91FF90EF90DF90F8
:1002B000CF900895CF93C82F40E062E081E00E9484
:1002C000D60240E061E081E00E94D6026C2F80E01F
:1002D0000E944D0341E060E081E00E94D60283EF7E
:1002E00091E00197F1F700C0000040E060E081E09C
:1002F0000E94D602CF91089561E080E00E94AB0297
:1003000041E062E081E00E94340241E061E081E08E
:100310000E94340241E060E081E00E9434028DE2FC
:1003200092E20197F1F700C000008CE30E945A01AD
:1003300089EF90E00197F1F700C000008CE00E9487
:100340005A0189EF90E00197F1F700C0000081E0C9
:100350000E945A0183EF91E00197F1F700C000007D
:1003600086E00E945A0189EF90E00197F1F700C002
:1003700000000895CF93C82F41E062E081E00E9421
:10038000D60240E061E081E00E94D6026C2F80E05E
:100390000E944D0341E060E081E00E94D60283EFBD
:1003A00091E00197F1F700C0000040E060E081E0DB
:1003B0000E94D602CF9108950F931F93CF938C0183
:1003C000C0E003C00E94BA01CF5FF801EC0FF11D3D
:1003D00080818111F7CFCF911F910F9108950F93D5
:1003E0001F93CF93DF93CDB7DEB764970FB6F89422
:1003F000DEBF0FBECDBF00E012C02AE030E040E01B
:1004000050E00E94B303E1E0F0E0EC0FFD1FE00FCD
:10041000F11D6083622F732F842F952F0F5F61155D
:1004200071058105910549F7015010E00CC0E1E02C
:10043000F0E0EC0FFD1FE00FF11F8081805D0E9456
:10044000BA0101501109112394F764960FB6F8947C
:10045000DEBF0FBECDBFDF91CF911F910F910895E9
:1004600081E00E945A010895843008F073C068301A
:1004700008F070C0442319F04130C9F1089581306B
:1004800091F028F08230D9F0833029F108952AB311
:1004900081E090E002C0880F991F6A95E2F780958D
:1004A00082238ABB089527B381E090E002C0880FC1
:1004B000991F6A95E2F78095822387BB089524B33C
:1004C00081E090E002C0880F991F6A95E2F780955D
:1004D000822384BB089521B381E090E002C0880F9D
:1004E000991F6A95E2F78095822381BB0895813038
:1004F00089F028F08230C9F0833011F108952AB3D1
:1005000081E090E002C0880F991F6A95E2F7822B84
:100510008ABB089527B381E090E002C0880F991F3D
:100520006A95E2F7822B87BB089524B381E090E0BF
:1005300002C0880F991F6A95E2F7822B84BB089549
:1005400021B381E090E002C0880F991F6A95E2F71D
:10055000822B81BB0895843040F5662319F0613009
:1005600089F00895813041F028F0823039F08330ED
:1005700039F008951ABA089517BA089514BA08956B
:1005800011BA0895813049F028F0823049F0833063
:1005900051F008958FEF8ABB08958FEF87BB0895C0
:1005A0008FEF84BB08958FEF81BB0895843008F0EE
:1005B00073C0683008F070C0442319F04130C9F1AD
:1005C0000895813091F028F08230D9F0833029F1FC
:1005D00008952BB381E090E002C0880F991F6A95BF
:1005E000E2F7809582238BBB089528B381E090E0E9
:1005F00002C0880F991F6A95E2F78095822388BB15
:10060000089525B381E090E002C0880F991F6A9594
:10061000E2F78095822385BB089522B381E090E0C4
:1006200002C0880F991F6A95E2F78095822382BBEA
:100630000895813089F028F08230C9F0833011F1BB
:1006400008952BB381E090E002C0880F991F6A954E
:10065000E2F7822B8BBB089528B381E090E002C0C3
:10066000880F991F6A95E2F7822B88BB089525B3FE
:1006700081E090E002C0880F991F6A95E2F7822B13
:1006800085BB089522B381E090E002C0880F991FD6
:100690006A95E2F7822B82BB0895843078F481302A
:1006A00041F028F0823039F0833039F008956BBB87
:1006B000089568BB089565BB089562BB08958430B2
:1006C000A8F5683098F5813089F028F08230C9F0BB
:1006D000833011F12BC029B381E090E002C0880F74
:1006E000991F6A95E2F7922F982320C026B381E0E4
:1006F00090E002C0880F991F6A95E2F7922F982325
:1007000015C023B381E090E002C0880F991F6A955D
:10071000E2F7922F98230AC020B381E090E002C054
:10072000880F991F6A95E2F7922F9823892F0895D1
:10073000843060F4683050F4442329F0413031F4BF
:100740000E94D602089540E00E94D6020895991BA7
:1007500079E004C0991F961708F0961B881F7A95B8
:10076000C9F780950895A1E21A2EAA1BBB1BFD01B3
:100770000DC0AA1FBB1FEE1FFF1FA217B307E40780
:10078000F50720F0A21BB30BE40BF50B661F771FD8
:10079000881F991F1A9469F76095709580959095B8
:0E07A0009B01AC01BD01CF010895F894FFCF7D
:1007AE003738392F3435362A3132332D23303D2B1D
:1007BE00000102030405060720507265737320239F
:1007CE0020746F205374617274002043616C6375E2
:0E07DE006C61746F7200205265733A20000047
:00000001FF
